:060000000A128A11FC2F18
:100F1600831603131F109F141F159F118601870147
:100F2600880185010A128A119E270A128A11952FB5
:100F36000A128A110028FF30831203138700FF303C
:100F46008800FF308500FF30F300FF30F400FF30EB
:100F5600F0007008F500FF30F0007008F600FF3072
:100F6600F0007008F200F7017408F1007308F00051
:100F76000310F00DF10DFE307005F300FF30710522
:100F8600F4007308860007307702031CCB2FCC2FA2
:100F9600D52F7508F0007007FE39F1007108F500CD
:100FA600750887000E307702031CDA2FDB2FE42F3B
:100FB6007608F0007007FE39F1007108F600760831
:100FC600880015307702031CE92FEA2FF12F7208EB
:100FD600F0007007FE39F1007108F2000130F000F0
:100FE6007008F70719307702031CFA2FFB2FB72F6B
:0A0FF600080083010A128A118B2FF4
:02400E00723FFF
:00000001FF
